{
  "_format": "hh-sol-artifact-1",
  "contractName": "Lottery",
  "sourceName": "contracts/Lottery.sol",
  "abi": [
    {
      "inputs": [],
      "stateMutability": "nonpayable",
      "type": "constructor"
    },
    {
      "anonymous": false,
      "inputs": [],
      "name": "VRF",
      "type": "event"
    },
    {
      "inputs": [],
      "name": "counter",
      "outputs": [
        {
          "internalType": "uint256",
          "name": "",
          "type": "uint256"
        }
      ],
      "stateMutability": "view",
      "type": "function"
    },
    {
      "inputs": [
        {
          "internalType": "uint256",
          "name": "_random",
          "type": "uint256"
        }
      ],
      "name": "fulfillRandomness",
      "outputs": [],
      "stateMutability": "nonpayable",
      "type": "function"
    },
    {
      "inputs": [],
      "name": "oracle",
      "outputs": [
        {
          "internalType": "address",
          "name": "",
          "type": "address"
        }
      ],
      "stateMutability": "view",
      "type": "function"
    },
    {
      "inputs": [],
      "name": "owner",
      "outputs": [
        {
          "internalType": "address",
          "name": "",
          "type": "address"
        }
      ],
      "stateMutability": "view",
      "type": "function"
    },
    {
      "inputs": [],
      "name": "play",
      "outputs": [],
      "stateMutability": "payable",
      "type": "function"
    },
    {
      "inputs": [
        {
          "internalType": "uint256",
          "name": "",
          "type": "uint256"
        }
      ],
      "name": "player",
      "outputs": [
        {
          "internalType": "address",
          "name": "",
          "type": "address"
        }
      ],
      "stateMutability": "view",
      "type": "function"
    },
    {
      "inputs": [],
      "name": "price",
      "outputs": [
        {
          "internalType": "uint256",
          "name": "",
          "type": "uint256"
        }
      ],
      "stateMutability": "view",
      "type": "function"
    },
    {
      "inputs": [
        {
          "internalType": "address",
          "name": "_oracle",
          "type": "address"
        }
      ],
      "name": "setOracle",
      "outputs": [],
      "stateMutability": "nonpayable",
      "type": "function"
    },
    {
      "inputs": [],
      "name": "winner",
      "outputs": [
        {
          "internalType": "address",
          "name": "",
          "type": "address"
        }
      ],
      "stateMutability": "view",
      "type": "function"
    }
  ],
  "bytecode": "0x6080604052348015600f57600080fd5b5033600360006101000a81548173ffffffffffffffffffffffffffffffffffffffff021916908373ffffffffffffffffffffffffffffffffffffffff16021790555061080b806100606000396000f3fe6080604052600436106100865760003560e01c80638da5cb5b116100595780638da5cb5b1461013357806393e84cd91461015e5780639e0551c614610168578063a035b1fe146101a5578063dfbf53ae146101d057610086565b8063495bd94e1461008b57806361bc221a146100b45780637adbf973146100df5780637dc0d1d014610108575b600080fd5b34801561009757600080fd5b506100b260048036038101906100ad9190610569565b6101fb565b005b3480156100c057600080fd5b506100c96102bf565b6040516100d691906105a5565b60405180910390f35b3480156100eb57600080fd5b506101066004803603810190610101919061061e565b6102c5565b005b34801561011457600080fd5b5061011d610399565b60405161012a919061065a565b60405180910390f35b34801561013f57600080fd5b506101486103bf565b604051610155919061065a565b60405180910390f35b6101666103e5565b005b34801561017457600080fd5b5061018f600480360381019061018a9190610569565b6104cf565b60405161019c919061065a565b60405180910390f35b3480156101b157600080fd5b506101ba610502565b6040516101c791906105a5565b60405180910390f35b3480156101dc57600080fd5b506101e5610508565b6040516101f2919061065a565b60405180910390f35b60006005600083815260200190815260200160002060009054906101000a900473ffffffffffffffffffffffffffffffffffffffff1690508073ffffffffffffffffffffffffffffffffffffffff166108fc479081150290604051600060405180830381858888f19350505050158015610279573d6000803e3d6000fd5b5080600460006101000a81548173ffffffffffffffffffffffffffffffffffffffff021916908373ffffffffffffffffffffffffffffffffffffffff1602179055505050565b60005481565b600360009054906101000a900473ffffffffffffffffffffffffffffffffffffffff1673ffffffffffffffffffffffffffffffffffffffff163373ffffffffffffffffffffffffffffffffffffffff1614610355576040517f08c379a000000000000000000000000000000000000000000000000000000000815260040161034c906106d2565b60405180910390fd5b80600260006101000a81548173ffffffffffffffffffffffffffffffffffffffff021916908373ffffffffffffffffffffffffffffffffffffffff16021790555050565b600260009054906101000a900473ffffffffffffffffffffffffffffffffffffffff1681565b600360009054906101000a900473ffffffffffffffffffffffffffffffffffffffff1681565b34600154811461042a576040517f08c379a00000000000000000000000000000000000000000000000000000000081526004016104219061073e565b60405180910390fd5b600080600081548092919061043e9061078d565b919050559050336005600083815260200190815260200160002060006101000a81548173ffffffffffffffffffffffffffffffffffffffff021916908373ffffffffffffffffffffffffffffffffffffffff160217905550606381036104cb577fa126285b9233810f97012a571e6bea294198b896ccbd342b606ce184594de8a860405160405180910390a15b5050565b60056020528060005260406000206000915054906101000a900473ffffffffffffffffffffffffffffffffffffffff1681565b60015481565b600460009054906101000a900473ffffffffffffffffffffffffffffffffffffffff1681565b600080fd5b6000819050919050565b61054681610533565b811461055157600080fd5b50565b6000813590506105638161053d565b92915050565b60006020828403121561057f5761057e61052e565b5b600061058d84828501610554565b91505092915050565b61059f81610533565b82525050565b60006020820190506105ba6000830184610596565b92915050565b600073ffffffffffffffffffffffffffffffffffffffff82169050919050565b60006105eb826105c0565b9050919050565b6105fb816105e0565b811461060657600080fd5b50565b600081359050610618816105f2565b92915050565b6000602082840312156106345761063361052e565b5b600061064284828501610609565b91505092915050565b610654816105e0565b82525050565b600060208201905061066f600083018461064b565b92915050565b600082825260208201905092915050565b7f4e6f207065726d697373696f6e73000000000000000000000000000000000000600082015250565b60006106bc600e83610675565b91506106c782610686565b602082019050919050565b600060208201905081810360008301526106eb816106af565b9050919050565b7f696e73756666696369656e742066756e64730000000000000000000000000000600082015250565b6000610728601283610675565b9150610733826106f2565b602082019050919050565b600060208201905081810360008301526107578161071b565b9050919050565b7f4e487b7100000000000000000000000000000000000000000000000000000000600052601160045260246000fd5b600061079882610533565b91507fffffffffffffffffffffffffffffffffffffffffffffffffffffffffffffffff82036107ca576107c961075e565b5b60018201905091905056fea2646970667358221220f8f7e5dd475f7854d548c9905270d764784e38fc1f0b738b9ff70652edd1709b64736f6c634300081c0033",
  "linkReferences": {},
  "deployedLinkReferences": {}
}